:020000040800F2
:1000000000400120CD340008693400086B3400083A
:100010006D3400086F3400087134000800000000DF
:10002000000000000000000000000000B1220008F5
:1000300073340008000000005123000895230008D5
:100040001535000815350008153500081535000868
:100050001535000815350008153500081535000858
:100060001535000815350008153500081535000848
:100070001535000815350008153500081535000838
:100080001535000815350008153500081535000828
:100090001535000815350008153500081535000818
:1000A0001535000815350008153500081535000808
:1000B0007534000815350008153500081535000899
:1000C00015350008153500081535000815350008E8
:1000D00015350008153500081535000815350008D8
:1000E00015350008153500081535000815350008C8
:1000F000153500080000000015350008153500080A
:1001000015350008153500081535000815350008A7
:1001100015350008153500081535000800000000E9
:10012000153500080000000000000000000000007D
:0C01300000000000000000005FF808F173
:1001400010B5054C237833B9044B13B10448AFF311
:1001500000800123237010BD600300200000000018
:10016000C03D000808B5034B1BB103490348AFF37A
:10017000008008BD0000000064030020C03D0008AE
:1001800008B5032000F024F8002003F031F903F053
:100190005BF8002008BD0000024A136801331360B9
:1001A000704700BFF4900020014B1868704700BFF3
:1001B000F490002010B582B00190FFF7F5FF0446DF
:1001C000FFF7F2FF001B019B9842F9D302B010BD6C
:1001D000074AD36823F4E0631B041B0C000200F4FD
:1001E000E060184340F0BF6040F40030D0607047DA
:1001F00000ED00E030B4174BDB68C3F30223C3F11A
:100200000704042C28BF04241D1D062D18D9033B08
:100210004FF0FF3505FA04F421EA0401994005FA8C
:1002200003F322EA0303194300280BDB0901C9B2D7
:1002300000F1604000F5614080F8001330BC704769
:100240000023E5E700F00F000901C9B2024B195481
:10025000F4E700BF00ED00E014ED00E000F01F0245
:10026000400901239340024A42F82030704700BF02
:1002700000E100E0F0B482B0002336E0062400E0A4
:100280000024B4403C430235624E46F82540624C9F
:100290002568D44304EA05064F6817F4803F01D06F
:1002A00042EA05065C4D2E606D6804EA05064F685B
:1002B00017F4003F01D042EA0506574D6E60AD6865
:1002C00004EA05064F6817F4801F01D042EA0506CC
:1002D000514DAE60ED682C404E6816F4001F01D001
:1002E00042EA05044C4AD46001330A6832FA03F446
:1002F00000F08C8001249C402240F5D04D68022DF6
:1003000001D0122D10D1DE08083650F826C003F0B7
:100310000705AF000F25BD402CEA050C0D69BD4057
:1003200045EA0C0540F8265006685F000325BD40ED
:10033000ED4305EA060C4E6806F00306BE4046EAA9
:100340000C0606604E6806F1FF3CBCF1010F03D9B4
:10035000112E01D0122E10D1866805EA060CCE6847
:10036000BE4046EA0C068660466826EA04044E68EB
:10037000C6F300169E4026434660C46825408C683C
:10038000BC402C43C4604C6814F0805FACD0234C5C
:10039000256A45F001052562246A04F001040194F0
:1003A000019C9D08AE1C1B4C54F8267003F00304FE
:1003B000A6000F24B44027EA0407194CA0423FF4DA
:1003C0005FAF04F58064A04216D004F58064A042BB
:1003D00014D004F58064A04212D004F58064A042D9
:1003E00010D004F58064A0420ED004F58064A042D1
:1003F0003FF444AF072444E7012442E7022440E7E6
:1004000003243EE704243CE705243AE702B0F0BCAD
:10041000704700BF00000140000401400038024066
:10042000000002400369194201D1002070470120F9
:10043000704712B90904816170478161704743694F
:10044000594041617047000082B0214B9B6813F016
:10045000F00F2CD11E4B5B6A13F0805F08D01D4B50
:100460001B6803F4C053B3F5C05F14D000211FE034
:10047000174A536A43F080535362536A03F0805320
:100480000193019B134B1B6803F4C053516A21F085
:1004900080515162E7E7B0F5404F01D0002107E0FD
:1004A0000D4A136843F004031360012100E00021AA
:1004B000094A136823F001030B431360136803F028
:1004C00001038B4202D0012002B070470020FBE7FD
:1004D0000038024000700040003C024070B582B01D
:1004E0000446036813F0010F37D0754B9B6803F087
:1004F0000C03082B1AD0724B9B6803F00C030C2BD7
:100500000FD06368012B66D0002B40F088806C4BC5
:100510001A6822F480321A601A6822F480221A6063
:100520005EE0674B9B6813F4803FEAD04FF40033E2
:1005300093FAA3F3624B19684FF4003393FAA3F3D1
:10054000B3FA83F303F01F03012202FA03F30B4211
:1005500003D06368002B00F07883236813F0020F48
:1005600000F0BF80564B9B6803F00C03042B00F097
:100570009080534B9B6803F00C030C2B00F083809E
:10058000E368002B00F04B81012292FAA2F3B3FA48
:1005900083F303F1845303F58E139B001A60FFF776
:1005A00003FE0546022393FAA3F3454B1968022381
:1005B00093FAA3F3B3FA83F303F01F03012202FAC1
:1005C00003F30B4240F01B81FFF7EEFD401B0228B6
:1005D000E8D9032040E33A4A136843F480331360B8
:1005E000636893B3FFF7E0FD05464FF4003393FAD9
:1005F000A3F3334B19684FF4003393FAA3F3B3FA20
:1006000083F303F01F03012202FA03F30B42A4D188
:10061000FFF7CAFD401B6428E7D903201CE3052B24
:1006200009D0274B1A6822F480321A601A6822F423
:1006300080221A60D4E7224B1A6842F480221A60A2
:100640001A6842F480321A60CAE7FFF7ADFD05462A
:100650004FF4003393FAA3F3194B19684FF40033A6
:1006600093FAA3F3B3FA83F303F01F03012202FA10
:1006700003F30B423FF471AFFFF796FD401B642874
:10068000E6D90320E8E20E4B9B6813F4803F7FF429
:1006900077AF022393FAA3F3094B1968022393FA65
:1006A000A3F3B3FA83F303F01F03012202FA03F367
:1006B0000B4207D0E368934204D00120CCE200BF94
:1006C00000380240C148436823F4F85321694FF4CD
:1006D000F85292FAA2F2B2FA82F201FA02F213434B
:1006E0004360236813F0100F5CD0B84B9B6813F085
:1006F0000C0F40F0D8804FF4007393FAA3F3B34B80
:1007000019684FF4007393FAA3F3B3FA83F303F079
:100710001F03012202FA03F30B4203D0A369002B4B
:1007200000F09582206AA94B5B6803F4604398420D
:1007300040F29D80FFF788FE002840F08A82A3499E
:100740004B6823F46043226A13434B604B6823F0E9
:100750007F43E0694FF07F4292FAA2F2B2FA82F24E
:1007600000FA02F213434B60236A4FF4604292FA9C
:10077000A2F2B2FA82F2D3405A1C4FF400439340E3
:10078000924A926802F0F002F02191FAA1F1B1FAD6
:1007900081F1CA408E498A5CD3408E4A13600020A2
:1007A00002F026FE236813F0080F00F0178163693A
:1007B000002B00F0E680012191FAA1F2B2FA82F258
:1007C000854B13449B001960FFF7EEFC054602239E
:1007D00093FAA3F27D4A516B93FAA3F3B3FA83F32E
:1007E00003F01F03012202FA03F30B4240F0F680EC
:1007F000FFF7DAFC401B0228E9D903202CE27348FA
:10080000436823F4F85321694FF4F85292FAA2F2A4
:10081000B2FA82F201FA02F21343436061E7012364
:1008200093FAA3F3B3FA83F303F1845303F58E131E
:100830009B0000221A60FFF7B7FC0546022393FADB
:10084000A3F3624B1968022393FAA3F3B3FA83F379
:1008500003F01F03012202FA03F30B423FF441AFFE
:10086000FFF7A2FC401B0228E8D90320F4E1574916
:100870004B6823F46043184348604B6823F07F4380
:10088000E0694FF07F4292FAA2F2B2FA82F200FAE5
:1008900002F213434B60206AFFF7D6FD00283FF4B5
:1008A00063AF0120D8E1A369002B3FD04FF48073E0
:1008B00093FAA3F3B3FA83F303F1845303F58E138E
:1008C0009B0001221A60FFF76FFC05464FF400738E
:1008D00093FAA3F33D4B19684FF4007393FAA3F313
:1008E000B3FA83F303F01F03012202FA03F30B426E
:1008F00006D1FFF759FC401B0228E7D90320ABE1E2
:1009000032494B6823F46043226A13434B604B68BF
:1009100023F07F43E0694FF07F4292FAA2F2B2FAED
:1009200082F200FA02F213434B603BE74FF480730C
:1009300093FAA3F3B3FA83F303F1845303F58E130D
:100940009B0000221A60FFF72FFC05464FF400734E
:1009500093FAA3F31D4B19684FF4007393FAA3F3B2
:10096000B3FA83F303F01F03012202FA03F30B42ED
:100970003FF418AFFFF718FC401B0228E6D903200C
:100980006AE1012292FAA2F2B2FA82F2124B134405
:100990009B0000221A60FFF707FC0546022393FA2A
:1009A000A3F20A4A516B93FAA3F3B3FA83F303F069
:1009B0001F03012202FA03F30B420FD0FFF7F4FBEF
:1009C000401B0228EAD9032046E100BF003802405C
:1009D0000C660008F8020020A0C19110236813F0F3
:1009E000040F00F092809E4B5B6A13F0805F1ED173
:1009F0009B4B5A6A42F080525A625B6A03F0805302
:100A00000193019B0125974B1B6813F4807F10D045
:100A1000A368012B21D0002B43D1914B5A6B22F4B8
:100A200080725A635A6B22F480625A631AE000257E
:100A3000E9E78C4A136843F480731360FFF7B4FB53
:100A40000646884B1B6813F4807FE1D1FFF7ACFBAF
:100A5000801B6428F5D90320FEE0814A536B43F4E0
:100A600080735363A36893B3FFF79EFB06464FF46E
:100A7000007393FAA3F27A4A516B93FAA3F3B3FA91
:100A800083F303F01F03012202FA03F30B423BD16D
:100A9000FFF78AFB801B41F288339842E7D9032095
:100AA000DAE0052B09D06E4B5A6B22F480725A6340
:100AB0005A6B22F480625A63D4E7694B5A6B42F452
:100AC00080625A635A6B42F480725A63CAE7FFF736
:100AD0006BFB06464FF4007393FAA3F2604A516B26
:100AE00093FAA3F3B3FA83F303F01F03012202FA8C
:100AF00003F30B4208D0FFF757FB801B41F288330A
:100B00009842E7D90320A7E0B5BB636A002B00F049
:100B1000A280534A926802F00C020C2A00F09E80D8
:100B2000022B2FD04FF0807393FAA3F3B3FA83F321
:100B300003F1845303F58E139B0000221A60FFF724
:100B400033FB04464FF0007393FAA3F3444B196848
:100B50004FF0007393FAA3F3B3FA83F303F01F0388
:100B6000012202FA03F30B426DD0FFF71DFB001BBD
:100B70000228E7D903206FE0394A536A23F08053F3
:100B80005362C2E74FF0807393FAA3F3B3FA83F38F
:100B900003F1845303F58E139B0000221A60FFF7C4
:100BA00003FB05464FF0007393FAA3F32C4B19682F
:100BB0004FF0007393FAA3F3B3FA83F303F01F0328
:100BC000012202FA03F30B4206D0FFF7EDFA401BB5
:100BD0000228E7D903203FE021498B6823F47D03F5
:100BE000A26AE06A0243206B024313438B604FF01A
:100BF000807393FAA3F3B3FA83F303F1845303F5F9
:100C00008E139B0001221A60FFF7CEFA04464FF0C4
:100C1000007393FAA3F3124B19684FF0007393FA21
:100C2000A3F3B3FA83F303F01F03012202FA03F3E1
:100C30000B4206D1FFF7B8FA001B0228E7D90320C0
:100C40000AE0002008E0002006E0012004E0012086
:100C500002E0012000E0002002B070BD0120FBE7AF
:100C60000038024000700040224B986800F00C02EF
:100C7000082A3CD00C2A13D0042A0FD01D4B5868E8
:100C800000F460404FF4604393FAA3F3B3FA83F3A4
:100C9000D840431C4FF400409840704716487047B6
:100CA00000F470114FF4701292FAA2F2B2FA82F2CA
:100CB00021FA02F211498A5C00F440004FF440032B
:100CC00093FAA3F3B3FA83F3D8400130094B9B683E
:100CD00013F4803F05D00A4B03FB02F3B3FBF0F0A3
:100CE0007047054B03FB02F3B3FBF0F07047044879
:100CF000704700BF003802400024F400006600087E
:100D000000127A008D4B1B6803F001038B4214D252
:100D100001290CD0894A136823F001030B431360A7
:100D2000136803F001038B4207D001207047834A08
:100D3000136843F004031360ECE770B5036813F025
:100D4000020F06D07E4A936823F0F00384682343A1
:100D500093600C460546036813F0010F00F0A38072
:100D60004368022B18D0032B48D0012B5BD04FF4E3
:100D7000007292FAA2F2724A10684FF4007292FA6C
:100D8000A2F2B2FA82F202F01F02012101FA02F28B
:100D9000024215D10120CDE04FF4003292FAA2F2C6
:100DA000674A10684FF4003292FAA2F2B2FA82F265
:100DB00002F01F02012101FA02F2024200F0BB80A0
:100DC0005F498A6822F0030213438B60FFF7ECF956
:100DD00006466B68022B39D0032B46D0012B53D02B
:100DE000574B9B6813F00C0F5DD0FFF7DDF9801BAC
:100DF00041F288339842F3D903209BE04FF0007210
:100E000092FAA2F24E4A10684FF0007292FAA2F2E1
:100E1000B2FA82F202F01F02012101FA02F202424A
:100E2000CED1012086E0022292FAA2F2444A106852
:100E3000022292FAA2F2B2FA82F202F01F02012119
:100E400001FA02F20242BBD1012073E03C4B9B68E5
:100E500003F00C03082B26D0FFF7A6F9801B41F204
:100E600088339842F2D9032064E0354B9B6803F045
:100E70000C030C2B17D0FFF797F9801B41F2883336
:100E80009842F2D9032055E02D4B9B6803F00C03E8
:100E9000042B08D0FFF788F9801B41F28833984271
:100EA000F2D9032046E0254B1B6803F00103A3425F
:100EB00014D9012C0CD0214A136823F001032343D9
:100EC0001360136803F00103A34207D0012031E04F
:100ED0001A4A136843F004031360ECE72B6813F01D
:100EE000040F06D0164A936823F4E063E9680B43C5
:100EF00093602B6813F0080F07D0114A936823F40E
:100F00006053296943EAC1039360FFF7ADFE0C4BC0
:100F10009B6803F0F003F02292FAA2F2B2FA82F296
:100F2000D340084AD35CD840074B1860002002F039
:100F30005FFA002070BD0120FCE700BF003C0240CA
:100F4000003802400C660008F8020020014B1868C7
:100F5000704700BFF802002008B5FFF7F7FF074B06
:100F60009B6803F4E0634FF4E06292FAA2F2B2FAF3
:100F700082F2D340024AD35CD84008BD0038024018
:100F80001C66000808B5FFF7E1FF074B9B6803F4F8
:100F900060534FF4605292FAA2F2B2FA82F2D34056
:100FA000024AD35CD84008BD003802401C660008E5
:100FB0000F2303600B4B9A6802F0030242609A68A9
:100FC00002F0F00282609A6802F4E062C2609B68FC
:100FD000DB0803F4E0630361034B1B6803F00103C8
:100FE0000B60704700380240003C02402DE9F041A0
:100FF00005460E4690461C46FFF7D6F80746B8F160
:10100000000F2ED02B689B6836EA03035BD1B4F146
:10101000FF3FF7D024B1FFF7C7F8C01BA042F1D9BA
:101020002A68536823F0E00353602A68136823F0AA
:1010300040031360AB6AB3F5005F39D0012385F834
:101040005130002385F8503003202FE02A681368C0
:1010500023F4005313602A68136843F400531360A9
:101060001BE02B689B6836EA03031ED0B4F1FF3FF8
:10107000F7D024B1FFF798F8C01BA042F1D92A6835
:10108000536823F0E00353602A68136823F0400399
:101090001360AB6AB3F5005FD8D0012385F85130F7
:1010A000002385F85030032000E00020BDE8F081E7
:1010B0002A68136823F4005313602A68136843F402
:1010C00000531360BAE70020F0E730B583B090F822
:1010D0005140E4B2012C40F0D080002900F0D180D2
:1010E000002A00F0D08090F85040012C00F0CD8014
:1010F000012480F85040122480F8514000244465B7
:1011000001638286C286C464846484638487C487DE
:10111000826AB2F5005F38D08268B2F5004F3FD0E6
:101120000268116811F0400F03D1116841F04001CD
:1011300011601D460446C368002B61D143681BB192
:10114000C38E9BB2012B09D1236B5A1C22632268E8
:101150001B78D360E38E013B9BB2E386E38E9BB2A8
:1011600023B32B46002202212046FFF73FFF002831
:1011700040F08D80236B5A1C226322681B78D36059
:10118000E28E013A92B2E286E8E701680A6822F448
:1011900000520A6001680A6842F400520A60BBE724
:1011A00001680A6842F480420A60B9E7A36AB3F5AD
:1011B000005F1FD02B46002202212046FFF716FFBA
:1011C00000284ED12B46012280212046FFF70EFF3A
:1011D000034600284BD1A2682AB92268D168019140
:1011E00092680192019A012284F85120002284F829
:1011F000502043E02268136843F480531360D9E71A
:1012000043681BB1C38E9BB2012B0AD1226B2368AA
:101210001288DA60236B02332363E38E013B9BB2B7
:10122000E386E38E9BB293B12B4600220221204637
:10123000FFF7DCFE68BB226B23681288DA60236B41
:1012400002332363E28E013A92B2E286E9E7A36AAF
:10125000B3F5005FAED12268136843F48053136086
:10126000A8E7636D43F020036365032306E0636D25
:1012700043F020036365032300E00223184603B014
:1012800030BD0123FAE70123F8E70223F6E7032341
:10129000F4E70323F2E700283CD010B5044690F8A9
:1012A0005130002B31D0022384F85130226813686A
:1012B00023F0400313606368A2681343E26813439A
:1012C0002269134362691343A26902F40072134353
:1012D000E2691343226A1343A16A22680B43136035
:1012E000638B03F00403616A22680B435360236835
:1012F000E26A1A612268D36923F40063D361002093
:101300006065012384F8513010BD80F8503001F041
:10131000C5FFC8E7012070470368B0F1804F0ED0C9
:101320001C4A90420BD002F58062904207D002F531
:101330008062904203D002F57C42904203D123F0B8
:1013400070034A681343B0F1804F16D0114A90429F
:1013500013D002F5806290420FD002F58062904275
:101360000BD002F57C42904207D002F58062904299
:1013700003D002F58062904203D123F44073CA681F
:10138000134303608B68C3620B688362012343616C
:10139000704700BF0004004030B4036A23F001032B
:1013A0000362036A4568846924F073040A6822436F
:1013B00023F002048B682343456082614A684263DC
:1013C000036230BC704730B4036A23F01003036239
:1013D000036A4468826922F4E6420D6842EA052203
:1013E00023F020038D6843EA0513446082614A6854
:1013F0008263036230BC704730B4036A23F48073A5
:101400000362036A4568C46924F073040A682243CE
:1014100023F400738C6843EA04234560C2614A6880
:10142000C263036230BC704730B4036A23F4805354
:101430000362036A4468C26922F4E6420D6842EA24
:10144000052223F400538D6843EA05334460C261EA
:101450004A680264036230BC70477047A8B110B597
:10146000044690F835305BB1022384F83530211DF5
:101470002068FFF751FF012384F83530002010BDAC
:1014800080F83430FFF7E9FFEEE70120704702688B
:10149000D36843F00103D3600268136843F001038B
:1014A000136000207047A8B110B5044690F835309D
:1014B0005BB1022384F83530211D2068FFF72CFF33
:1014C000012384F83530002010BD80F8343001F05D
:1014D0001BFFEEE70120704738B590F83430012B40
:1014E00066D00D460446012380F83430022380F88C
:1014F00035300C2A1AD8DFE802F00719191920191B
:1015000019193419191947000068FFF745FF2268B7
:10151000936943F0080393612268936923F00403FD
:10152000936122689369E9680B439361012384F80E
:101530003530002084F8340038BD0068FFF743FFE1
:101540002268936943F4006393612268936923F4EA
:101550008063936122689369E96843EA0123936198
:10156000E4E70068FFF748FF2268D36943F0080307
:10157000D3612268D36923F00403D3612268D3695D
:10158000E9680B43D361D1E70068FFF74DFF22689C
:10159000D36943F40063D3612268D36923F4806381
:1015A000D3612268D369E96843EA0123D361BDE7C7
:1015B0000220C1E7704770477047704710B5044676
:1015C00003681A6912F0020F11D0DA6812F0020FE4
:1015D0000DD06FF002021A610123037503689B6945
:1015E00013F0030F5ED0FFF7E6FF00232375236897
:1015F0001A6912F0040F12D0DA6812F0040F0ED03C
:101600006FF004021A610223237523689B6913F4A7
:10161000407F4DD02046FFF7CEFF0023237523687F
:101620001A6912F0080F12D0DA6812F0080F0ED003
:101630006FF008021A61042323752368DB6913F035
:10164000030F3CD02046FFF7B6FF00232375236825
:101650001A6912F0100F12D0DA6812F0100F0ED0C3
:101660006FF010021A61082323752368DB6913F4F5
:10167000407F2BD02046FFF79EFF00232375236871
:101680001A6912F0010F03D0DA6812F0010F24D1A9
:1016900023681A6912F0400F03D0DA6812F0400F85
:1016A00022D110BDFFF786FF2046FFF785FF9CE79C
:1016B0002046FFF77FFF2046FFF77EFFADE720467D
:1016C000FFF778FF2046FFF777FFBEE72046FFF7DA
:1016D00071FF2046FFF770FFCFE76FF001021A613C
:1016E000204601F06BFBD3E76FF040021A61204601
:1016F000FFF763FFD5E790F83430012B22D030B4E8
:10170000012280F83420022380F8353004686368B1
:1017100023F070036360046863680D682B436360A3
:101720000468A36823F08003A3600468A368496881
:101730000B43A36080F83520002380F8343018462E
:1017400030BC7047022070472DE9F8430446026818
:10175000136923F44053C1680B4313618368026922
:10176000134342691343C2691A430168CB6823F4E7
:10177000164323F00C031343CB600268536923F430
:10178000407381690B435361C369B3F5004F5CD06B
:101790000268B34B9A4200F00C81FFF7DDFB00EBCF
:1017A000800000EB80006568AD00B0FBF5F5AD4F43
:1017B000A7FB05356D092E01FFF7CEFB00EB80007E
:1017C00000EB80006568AD00B0FBF5F9FFF7C4FBE6
:1017D00000EB800000EB80006568AD00B0FBF5F524
:1017E000A7FB05356D094FF0640808FB15952D0121
:1017F0003235A7FB05356D0905F0F0053544FFF7D7
:10180000ABFB00EB800000EB80006668B600B0FB2D
:10181000F6F6FFF7A1FB00EB800000EB80006368A9
:101820009B00B0FBF3F0A7FB0030400908FB1068F9
:101830004FEA081808F13208A7FB0837C7F3431727
:1018400023682F449F60BDE8F8830268844B9A4266
:1018500057D0FFF781FB00EB800000EB800065684C
:101860006D00B0FBF5F57F4FA7FB05356D092E0127
:10187000FFF772FB00EB800000EB800065686D00F5
:10188000B0FBF5F9FFF768FB00EB800000EB800090
:1018900065686D00B0FBF5F5A7FB05356D094FF0E8
:1018A000640808FB1595ED003235A7FB05356D0979
:1018B0006D0005F4F8753544FFF74EFB00EB800032
:1018C00000EB800066687600B0FBF6F6FFF744FB9D
:1018D00000EB800000EB800063685B00B0FBF3F37B
:1018E000A7FB03235B0908FB13684FEAC80808F14C
:1018F0003208A7FB0837C7F3421723682F449F60BD
:10190000A1E7FFF73FFB00EB800000EB800065687C
:101910006D00B0FBF5F5534FA7FB05356D092E01A2
:10192000FFF730FB00EB800000EB800065686D0086
:10193000B0FBF5F9FFF726FB00EB800000EB800021
:1019400065686D00B0FBF5F5A7FB05356D094FF037
:10195000640808FB1595ED003235A7FB05356D09C8
:101960006D0005F4F8753544FFF70CFB00EB8000C3
:1019700000EB800066687600B0FBF6F6FFF702FB2E
:1019800000EB800000EB800063685B00B0FBF3F3CA
:10199000A7FB03235B0908FB13684FEAC80808F19B
:1019A0003208A7FB0837C7F3421723682F449F600C
:1019B00049E7FFF7E7FA00EB800000EB800065687D
:1019C000AD00B0FBF5F5274FA7FB05356D092E01DE
:1019D000FFF7D8FA00EB800000EB80006568AD00EF
:1019E000B0FBF5F9FFF7CEFA00EB800000EB8000CA
:1019F0006568AD00B0FBF5F5A7FB05356D094FF047
:101A0000640808FB15952D013235A7FB05356D09D6
:101A100005F0F0053544FFF7B5FA00EB800000EB68
:101A200080006668B600B0FBF6F6FFF7ABFA00EB95
:101A3000800000EB800063689B00B0FBF3F3A7FB22
:101A400003235B0908FB13684FEA081808F1320802
:101A5000A7FB0837C7F3431723682F449F60F2E6BC
:101A6000003801401F85EB5148B310B5044690F88B
:101A70003930FBB1022384F839302268D36823F46B
:101A80000053D3602046FFF75FFE2268136923F4FA
:101A9000904313612268536923F02A03536122683B
:101AA000D36843F40053D3600020E063012384F83B
:101AB000393010BD80F8383001F064FCDAE70120DD
:101AC0007047842801D0033070470020704708B564
:101AD00000F0C0F9002008BDF0B585B00F4644689D
:101AE00005680669B0F90800FFF7EBFF03AB019347
:101AF00000903B46B2B22946204600F079F9012811
:101B000002D1039805B0F0BD0020FBE708B50346FD
:101B100000B90123184600F0DFFA002008BD00F1EB
:101B2000080343604FF0FF328260C360036100230B
:101B30000360704700230361704743684B609A68F5
:101B40008A609A6851609960086103680133036094
:101B5000704730B40D68B5F1FF3F02D000F10802C4
:101B600002E0026904E01A4653681C68AC42FAD9E4
:101B700053684B6099608A60516008610368013363
:101B8000036030BC70470369426881689160826875
:101B9000416851605A68824205D00022026118688B
:101BA00001381860704782685A60F6E7074B9B6AF5
:101BB0001B6833B1054B9A6AD268D2685268DA6200
:101BC0007047024B4FF0FF32DA6270477C0300200F
:101BD00010B50446006B00F02DFD204600F02AFDF4
:101BE00010BD2DE9F04780469946089D099F0A9C43
:101BF000266B02F18042013A06EB820626F00706C8
:101C000000230F2B07D8C85CE21882F83400CA5CA6
:101C10000AB10133F5E7002384F84330062D00D9DB
:101C20000625E56265644FF0000AC4F848A0201D4F
:101C3000FFF780FF04F11800FFF77CFF2461C5F176
:101C40000705A5616462C4F84CA084F850A04A4618
:101C50004146304600F016FB206007B13C60BDE80D
:101C6000F087000070B5002407E004EB84029300C5
:101C700010481844FFF753FF0134062CF5D90E4CD9
:101C800004F1BC063046FFF74AFF04F1D0052846B0
:101C9000FFF745FF04F11400FFF741FF04F1E400F2
:101CA000FFF73DFF2046FFF73AFFA662C4F8F85061
:101CB00070BD00BFAC0300207C03002038B5054692
:101CC00000F008FB264BD3F8FC200132C3F8FC20BF
:101CD000D3F8003173B1224BD3F804318BB9204BC8
:101CE000D3F80031DA6AEB6A9A420AD81C4BC3F87F
:101CF000005106E01A4BC3F80051D3F8FC30012B19
:101D00002AD0174CD4F808310133C4F80831EB6AF3
:101D100001229A40D4F80C110A43C4F80C2104F1B2
:101D2000300003EB83039A00291D1044FFF705FFE1
:101D300000F0F2FAD4F804316BB1D4F80031DA6A69
:101D4000EB6A9A4207D2074B4FF080521A60BFF3FA
:101D50004F8FBFF36F8F38BDFFF784FFD1E700BF10
:101D60007C03002004ED00E070B504460E461F4BD6
:101D7000D3F81051D3F800010430FFF704FF60B925
:101D80001A4BD3F80021D16A012202FA01F1D3F8EB
:101D90000C2122EA0102C3F80C21B4F1FF3F12D05A
:101DA0002C44124BD3F800315C60A54214D80F4D7F
:101DB000A86AD5F800110431FFF7CBFEEB6AA34205
:101DC00012D9EC6210E0002EEAD00848D0F80011D9
:101DD0000431FFF7B2FE07E0044BD3F8F800D3F864
:101DE00000110431FFF7B5FE70BD00BF7C03002079
:101DF0002DE9F04385B00746884615469946900080
:101E000000F092FBF8B10646542000F08DFB04462A
:101E1000A8B10663D4B10023039302940D9B0193F0
:101E20000C9B00934B462A4641463846FFF7D9FEA5
:101E30002046FFF743FF012005B0BDE8F0833046A0
:101E400000F0F8FBE6E74FF0FF30F5E74FF0FF302A
:101E5000F2E7000000B583B0174B01930023009315
:101E6000802216491648FFF7C3FF012805D0B0F1BC
:101E7000FF3F17D003B05DF804FB4FF0500383F32E
:101E80001188BFF36F8FBFF34F8F0E4B4FF0FF32B0
:101E9000DA620122C3F804210022C3F8102100F005
:101EA000A5FAE7E74FF0500383F31188BFF36F8F74
:101EB000BFF34F8FFEE700BF9804002024660008A0
:101EC000792100087C030020034AD2F8183101333D
:101ED000C2F81831704700BF7C0300202DE9F041A3
:101EE000404BD3F81831002B6CD13E4BD3F8105136
:101EF0000135C3F81051CDB99B6A1B6843B14FF04F
:101F0000500383F31188BFF36F8FBFF34F8FFEE74A
:101F1000344B9A6AD3F8F8109962C3F8F820D3F8D2
:101F200020210132C3F82021FFF740FE2D4BDB6A50
:101F3000AB423DD900242B4AD2F80031DB6A03EBD7
:101F4000830399000A44136B012B42D9012440E01A
:101F50000124244B9B6A1B6863B3224B9B6ADB689A
:101F6000DE6873689D422AD306F104084046FFF7F5
:101F70000AFEB36A1BB106F11800FFF704FEF36A0C
:101F800001229A40174FD7F80C110A43C7F80C21C9
:101F900007F1300003EB83039A0041461044FFF73A
:101FA000CCFDF26AD7F80031DB6A9A42D0D2D0E792
:101FB0000024CEE70B4B4FF0FF32DA62BBE7094A51
:101FC000D362B8E7074AD2F824310133C2F824318A
:101FD0000024044BD3F8283103B101242046BDE886
:101FE000F08100BF7C030020394BD3F8183143B98E
:101FF0004FF0500383F31188BFF36F8FBFF34F8F00
:10200000FEE770B500F066F9314BD3F81821013ABC
:10201000C3F81821D3F81831002B54D12C4BD3F826
:10202000FC3023B9002400F077F9204670BD00246D
:10203000274B5B692BB3264D2B6ADC6804F1180033
:10204000FFF7A1FD261D3046FFF79DFDE36A012243
:102050009A40D5F80C110A43C5F80C2105F130005F
:1020600003EB83039A0031461044FFF766FDE26AF2
:10207000D5F80031DB6A9A42DAD30122C5F828216B
:10208000D6E70CB1FFF792FD114BD3F8244164B1B0
:10209000FFF724FF18B10E4B0122C3F82821013CA1
:1020A000F6D10B4B0022C3F82421094BD3F8283179
:1020B0005BB1084B4FF080521A60BFF34F8FBFF3F4
:1020C0006F8F0124AFE70024ADE70024ABE700BF2A
:1020D0007C03002004ED00E010B5B0B104460F4BC6
:1020E000D3F8183143B14FF0500383F31188BFF395
:1020F0006F8FBFF34F8FFEE7FFF7E6FE002120460C
:10210000FFF732FEFFF770FF38B9054B4FF08052F2
:102110001A60BFF34F8FBFF36F8F10BD7C03002099
:1021200004ED00E038B5134BD3F814310BB3FFF7CF
:10213000CBFE104BD3F8E440FFF756FF002CF2D053
:1021400000F0C8F80B4CD4F8F030DD68281DFFF71C
:102150001AFDD4F8FC30013BC4F8FC30D4F814313B
:10216000013BC4F8143100F0D7F82846FFF730FDE2
:10217000D9E738BD7C03002008B5FFF7D3FF064B35
:102180001B6B012BF9D9054B4FF080521A60BFF33E
:102190004F8FBFF36F8FF0E77C03002004ED00E06A
:1021A000224BD3F8183123B1204B0122C3F8282148
:1021B00070471E4A0023C2F82831D2F80C31B3FA16
:1021C00083F3DBB2C3F11F0303EB830081000A44F6
:1021D000126B42B94FF0500383F31188BFF36F8F36
:1021E000BFF34F8FFEE710B4104A9900CC18A0003F
:1021F0001044446B646844633032194488000830EA
:10220000024494420AD0094903EB83039A000A442A
:10221000536BDB68C1F8003110BC7047616803483C
:10222000142202FB03025163EDE700BF7C03002090
:102230000B4B1B68B3F1FF3F08D04FF0500383F303
:102240001188BFF36F8FBFF34F8FFEE74FF050033E
:1022500083F31188BFF36F8FBFF34F8FFEE700BF8B
:102260000000002006480068006880F3088862B615
:1022700061B6BFF34F8FBFF36F8F00DF00BF000069
:1022800008ED00E04FF0807340F8043C21F00101BC
:1022900040F8081C034B40F80C3C40F8202C403818
:1022A000704700BF3122000800000000000000005D
:1022B000074B19680868B0E8F00F80F30988BFF38E
:1022C0006F8F4FF0000080F311884EF00D0E7047B5
:1022D0007C0400204FF0500383F31188BFF36F8F0D
:1022E000BFF34F8F0A4A136801331360012B00D0EC
:1022F0007047084B1B6813F0FF0FF9D04FF05003E5
:1023000083F31188BFF36F8FBFF34F8FFEE700BFDA
:102310000000002004ED00E0094B1B6843B94FF0BA
:10232000500383F31188BFF36F8FBFF34F8FFEE726
:10233000013B034A13600BB983F31188704700BF58
:10234000000000200000000000000000000000006D
:10235000EFF30980BFF36F8F0D4B1A6820E9F00F80
:1023600010602DE908404FF0500080F31188FFF70E
:1023700017FF4FF0000080F31188BDE8084019688E
:102380000868B0E8F00F80F30988BFF36F8F7047DB
:102390007C04002008B54FF0500383F31188BFF38D
:1023A0006F8FBFF34F8FFFF799FD18B1034B4FF0BD
:1023B00080521A60002383F3118808BD04ED00E009
:1023C000064B1B68064AA2FB03239B09013B054AF7
:1023D0001360054B07221A60704700BFF802002007
:1023E000D34D621014E000E010E000E000B583B0CF
:1023F0001E4B1A78D2B20192FF221A701B78DBB200
:102400008DF803309DF8033003F05003184A137021
:102410000723536009E0164A5368013B53609DF857
:1024200003305B00DBB28DF803309DF8033013F00E
:10243000800FF0D10E4A53681B0203F4E06353602F
:10244000019BDBB2094A13700A4B1A6842F470020E
:102450001A601A6842F070421A60FFF7B1FF064B2B
:1024600000221A60FFF7FEFEFFF7E2FE00E400E044
:10247000A804002020ED00E000000020134A12F024
:10248000070F20D0D11D21F00701C1F5406313448F
:102490000A460E49C1F8002C0020C1F8040C134470
:1024A000083B23F00703C1F8083C58601860981AED
:1024B00050601360C1F80C0CC1F8100C4FF00043D1
:1024C000C1F8143C70474FF44063E2E7B0040020C9
:1024D00010B4134B1A6882421BD359685C188442AB
:1024E00003D1406801445960184641684418A2422B
:1024F00013D10C4CD4F8084CA2420CD052681144B1
:1025000041601A6812680260984200D0186010BCDE
:1025100070471346DEE70460F6E70260F4E700BFA9
:10252000B0100020B004002070B50446FFF7CCFCCA
:102530003F4BD3F8083CC3B13D4BD3F8143C1C428D
:102540006CD1ACB1083414F0070F11D024F007049B
:10255000083404F007035BB14FF0500383F3118894
:10256000BFF36F8FBFF34F8FFEE7FFF787FFE3E700
:10257000002C55D02E4BD3F8103CA34252D32C4BF9
:10258000D3F8005C03F5406301E02B4615466A680A
:10259000A24202D22A68002AF7D1254AD2F8082C92
:1025A000AA4241D01E6808362A681A606B681B1B55
:1025B000102B10D9281910F0070F08D04FF0500336
:1025C00083F31188BFF36F8FBFF34F8FFEE7436034
:1025D0006C60FFF77DFF6968154AD2F8103C5B1A02
:1025E000C2F8103CD2F80C2C934202D2104AC2F826
:1025F0000C3C0F4BD3F8143C0B436B6000232B6057
:10260000FFF7F2FC16F0070F10D04FF0500383F3E2
:102610001188BFF36F8FBFF34F8FFEE70026EFE700
:102620000026EDE70026EBE70026E9E7304670BD1F
:10263000B004002098B338B50446A0F1080550F85E
:10264000042C1749D1F8141C0A4208D14FF050034A
:1026500083F31188BFF36F8FBFF34F8FFEE750F8FE
:10266000080C40B14FF0500383F31188BFF36F8F14
:10267000BFF34F8FFEE722EA010244F8042CFFF774
:1026800023FC54F8041C064AD2F8103C0B44C2F850
:10269000103C2846FFF71CFFFFF7A6FC38BD70472B
:1026A000B00400204268002A11DDC1684B79C3F1F3
:1026B00080039A420DDA0268002A0CDD0B79C3F11F
:1026C00080039A4201DA00207047042070470120FD
:1026D0007047022070470320704730B40B680468CD
:1026E0004D684268AA1A1B1B11D4002B03DDC46875
:1026F00024799C4200DCEBB9002A11DB002A03DDBF
:10270000C3685B79934218DCCAB1002013E083EA06
:10271000E375A5EBE375CC682479A542ECDBE4E72F
:1027200082EAE274A4EBE274CB685B799C42E5DA5E
:10273000012000E0002030BC70470120FBE70120B1
:10274000F9E7000000B583B00421084600F04EFD13
:10275000064A074BD88B074B1B680093064B06CAEB
:1027600000F000FD03B05DF804FB00BF180200207C
:1027700008000020C81000202C66000810B5074C87
:10278000E08800F03DFC2D210F2000F02FFD044AD1
:10279000044B06CAE08B00F0E5FC10BD08000020E9
:1027A000100200203066000808B503681A7A02B9E2
:1027B00008BDDA68B3F90410B3F9000000F01CFD9D
:1027C000F6E70000014B00221A607047F8900020E5
:1027D00010B50446082000F0C3FE034B1A6842609F
:1027E0000460186010BD00BFF890002038B50446A2
:1027F0000D46102000F0B4FE2860C460069A0272F4
:10280000049A0260059A4260FFF7E2FF38BD0000BB
:1028100010B584B0FFF7D6FF01240294782301930A
:10282000382300930423102213491448FFF7DEFFD6
:102830000294322301933C23009304231A46104947
:102840001048FFF7D3FF002412E06FF00C0303FBE6
:1028500004F30122029204220192723300930B23AB
:102860001A46094901EB84010848FFF7BFFF01340C
:10287000022CEADD04B010BDFC900020F002002024
:1028800000910020E802002004910020E0020020D6
:1028900010B56A4BDB68BBB9694B1C682146694BB4
:1028A0001868FFF71AFF002835D0644B1B69002B0E
:1028B00034D1624B4FF0FF325A611A6801321A600C
:1028C00001225A601A6129E04FF480615E48FDF7E9
:1028D000A9FD012867D108215C48FDF7A3FD012867
:1028E00061D10023554AD360554A11683C200860E5
:1028F00012680A21516005E0554A52F8232001214F
:1029000011720B44022BF7DD524B03221A604B4B22
:1029100000221A6047E0494B00221A612046FFF767
:10292000C1FE0138032806D8DFE800F0023E535705
:10293000424B01225A61414B5B69002B52DD404BF7
:102940001A685368013353603C4B9B69002B4FDD81
:102950003B4B1A681368013313604FF480613A48A7
:10296000FDF760FD012849D0344BDB69002B02DD07
:10297000013B324AD36108213448FDF753FD012859
:1029800044D02E4BDB69002B49DB2E4B1C682046C4
:10299000FFF788FE032846D0042849D02368274A39
:1029A000D2691344236010BD2A4A1368013B1360A7
:1029B000274A52F823200021117213B91F4B01221C
:1029C000DA60002363603E2323601C4B01225A61BE
:1029D000B1E71A4B01229A61ADE7184B4FF0FF3275
:1029E0009A61A8E7164B1A685368013B5360ABE73E
:1029F000134B1A681368013B1360AEE70F4BDB699A
:102A0000022BB8DC01330D4AD361B4E70B4BDB6911
:102A100013F1020FB9DB013B084AD361B5E701337B
:102A2000064AD361B1E7054BDB69002BB4DABAE79C
:102A3000024BDB69002BB6DCB0E700BFC8100020FA
:102A400000910020FC9000200000024000040240A1
:102A5000049100200400002010B50C4BDB6843B942
:102A60000B4BD88800F0CCFAFFF76CFE094B1C68C2
:102A700006E0FFF783FE05E02046FFF795FE646859
:102A8000002CF9D100F0C8FA10BD00BFC81000201A
:102A900008000020F890002008B52120FFF71CFB5B
:102AA000FFF7F6FEF9E708B52120FFF715FBFFF762
:102AB000D3FFF9E72DE9F0438BB000240594069489
:102AC0000794089409943A4BDA6942F00402DA61F7
:102AD000DA6902F004020192019ADA6942F02002F6
:102AE000DA61DA6902F020020292029ADA6942F0AF
:102AF0000102DA61DA6902F001020392039ADA69EB
:102B000042F00202DA61DB6903F002030493049BE2
:102B1000DFF8AC80224603214046FDF78AFC254FB2
:102B2000224620213846FDF784FC234E224601210F
:102B30003046FDF77EFC4FF4005305931F4B069380
:102B4000079405A94046FDF795FB0323059301254E
:102B500006954FF00209CDF81C90089405A940464F
:102B6000FDF788FB2023059306950794089405A993
:102B70003846FDF77FFB05950695CDF81C90089427
:102B800005A93046FDF776FB4FF480630593069464
:102B9000079405A93846FDF76DFB082305930694B5
:102BA000079405A93046FDF765FB0BB0BDE8F0833F
:102BB00000380240000002400004024000001110F2
:102BC0000008024008B50848084B03604FF4E133A1
:102BD000436000238360C36003610C224261836110
:102BE000C361FEF741FF08BDA491002000440040EE
:102BF00008B50B480B4B03604FF48273436000230E
:102C00008360C360036143614FF400728261C361FA
:102C10000362436283620A23C362FEF73CFB08BD82
:102C2000149100200038004030B589B0002406948B
:102C3000079401940294039404940594104D114B4D
:102C40002B6040F237436B60AC606323EB602C6118
:102C50002846FEF728FC0694079406A92846FEF7A6
:102C60004AFD60230193029403940494224601A92F
:102C70002846FEF731FC284600F05CFB09B030BD69
:102C80006C9100200004004008B50120FEF73EFFD3
:102C9000FBE7000008B520210148FDF7D0FB08BD87
:102CA0000000024008B5FFF7F5FF4FF4FA70FFF798
:102CB00013FAF8E730B593B03422002105A800F0EC
:102CC00062FC002400940194029403940494124A38
:102CD000136823F4C05343F4006313600223059385
:102CE00001250895102209920E930F944FF40023AA
:102CF00010934FF40003119305A8FDF7EFFB0F238A
:102D00000093032301930294039404942946684694
:102D1000FDF7F8FF13B030BD0070004000B589B07A
:102D2000FDF72EFAFFF7C6FFFFF7C4FEFFF74AFFD5
:102D3000FFF75EFFFFF778FF00F0C0F8002000F01B
:102D40005FF900F069F9FFF763FD03AC134D0FCD98
:102D50000FC42B682360002103A8FEF7BDFE104BB3
:102D60001860002401940125009523460A220D498C
:102D70000D48FFF73DF80194009423460A220B49C1
:102D80000B48FFF735F8019400952346C8220949FE
:102D90000948FFF72DF8FEF79AFEFEE7EC650008FC
:102DA000109100203C660008992A0008446600083B
:102DB000A52C000848660008A72A000808B5036883
:102DC000B3F1804F00D008BDFDF7E6F9FBE7000046
:102DD00010B4002408E0064B1A68035DD3609368C2
:102DE00013F0020FFBD001348C42F4D310BC7047B7
:102DF0001491002000B583B002A901F8010D002351
:102E000001220348FEF761F903B05DF804FB00BF3F
:102E10001491002008B50122FDF70BFB08BD08B591
:102E20000022FDF706FB08BD38B50546022108481B
:102E3000FFF7F0FF074C01212046FFF7F0FF28467F
:102E4000FFF7D8FF01212046FFF7E4FF38BD00BFA0
:102E5000000802400004024038B505460221084837
:102E6000FFF7DDFF074C01212046FFF7D8FF28467A
:102E7000FFF7C0FF01212046FFF7CCFF38BD00BFA0
:102E8000000802400004024010B502210848FFF784
:102E9000C1FF084C01212046FFF7C1FF4FF400415C
:102EA0000548FFF795FF01212046FFF7B3FF10BD4E
:102EB0000008024000040240E810002010B54F4C0A
:102EC00001212046FFF7A6FF4FF4FA70FDF772F9D3
:102ED00001212046FFF7A3FF4FF4FA70FDF76AF9CE
:102EE00001212046FFF796FF4FF4FA70FDF762F9D3
:102EF000FD20FFF7B1FF1220FFF796FFFD20FFF73F
:102F0000ABFFB120FFF790FFAE20FFF7A5FFB32086
:102F1000FFF7A2FFF120FFF787FFCA20FFF79CFF12
:102F20007F20FFF781FF4FF41670FDF743F9A020D3
:102F3000FFF792FF2020FFF777FF1520FFF78CFFA8
:102F40000020FFF771FF7F20FFF76EFF7520FFF76E
:102F500083FF0020FFF768FF7F20FFF765FFA120B8
:102F6000FFF77AFF0020FFF75FFFA220FFF774FF53
:102F70000020FFF759FFB520FFF76EFF0020FFF795
:102F800053FFAB20FFF768FF0120FFF74DFFB12093
:102F9000FFF762FF3220FFF747FFBE20FFF75CFF1D
:102FA0000520FFF741FFA620FFF756FFC120FFF7DE
:102FB00053FF8A20FFF738FF5120FFF735FF8A20A3
:102FC000FFF732FFC720FFF747FF0F20FFF72CFF67
:102FD000B420FFF741FFA020FFF726FFB520FFF741
:102FE00023FF5520FFF720FFB620FFF735FF012014
:102FF000FFF71AFFAF20FFF72FFF10BD00080240B8
:10300000002303E0034A22F813000133B3F5804F95
:10301000F8DB7047E810002008B55C20FFF71CFFC4
:103020004FF400410148FFF72FFF08BDE8100020D2
:103030007F280CDC7F290ADC002808DB002906DB5E
:10304000C0F17F0000EBC111014B23F81120704744
:10305000E81000202DE9F04782B002AC04E9060038
:10306000294A12789DF800502A447F2A29DC264AF2
:1030700052789DF8018042447F2A22DC0A2B03D03B
:103080009A468146002733E01F4B7F221A709DF835
:1030900000101D4A13780B44DBB213705C18527891
:1030A0009DF8011050187E2CD4BF002301237F28E7
:1030B000C8BF00232BB1C3B20233134A537000239D
:1030C000137002B0BDE8F0870134A5420FDD06FAA7
:1030D00004F212F4004FF7D00B4B187820445978C3
:1030E00039444A4609B200B2FFF7A2FFECE70137C4
:1030F000B845CCDDAAF1200303FB0873019A32F82E
:1031000013600024E1E700BFE491002030B583B0F4
:10311000054602A800E906001C463BB909E002AAE0
:1031200012E906002846FFF795FF01342378002BAB
:10313000F5D103B030BD000030B585B005466C4612
:1031400084E806001A46064902A800F0DBFA02AB42
:1031500094E806002846FFF7D9FF05B030BD00BF50
:103160002C66000808B430B584B06B4683E80600CE
:10317000079C002C34D0054608AB039310E06A4648
:1031800006CA2846FFF766FF013409E0039B1A1DB3
:1031900003921B686A4606CA2846FFF7B7FF023447
:1031A0002378EBB1252BEAD16378692B0DD0732BF3
:1031B000ECD0632BF3D1039B1A1D03921B786A4654
:1031C00006CA2846FFF746FFE9E7039B1A1D03924C
:1031D00093F900306A4606CA2846FFF7ADFFDEE7DE
:1031E00004B0BDE8304001B070470000014B1870DA
:1031F00059707047E49100202DE9F04180460F4658
:103200001546002616E001346B79A34211DD2A68C9
:103210002B7904FB0363D25C0A4B33F81220002A9B
:10322000F1D006EB0800E11909B200B2FFF700FF88
:10323000E9E701362B79B34201DD0024E4E7BDE87C
:10324000F08100BF0800002000B585B0124B5A6A1B
:1032500042F000425A625A6A02F000420192019A18
:103260001A6A42F001021A621A6A02F0010202921C
:10327000029A5A6A42F080525A625B6A03F08053A3
:103280000393039B00220F216FF00100FCF7B2FFB4
:1032900005B05DF804FB00BF0038024000B589B0FE
:1032A0000023039304930593069307930268144B3A
:1032B0009A4202D009B05DF804FB03F500335A6A64
:1032C00042F480425A625A6A02F480420192019AA0
:1032D000DA6942F00202DA61DB6903F00203029369
:1032E000029B4FF46043039302230493032306934A
:1032F0000523079303A90348FCF7BCFFDAE700BFE7
:1033000000380040000402400268094B9A4200D095
:10331000704782B003F50D335A6A42F002025A62D6
:103320005B6A03F002030193019B02B0704700BF88
:103330000004004000B587B000230193029303937B
:103340000493059302680D4B9A4202D007B05DF8D2
:1033500004FB03F50D33DA6942F00202DA61DB693E
:1033600003F002030093009B1023019302230293B6
:10337000059301A90248FCF77DFFE7E70004004040
:103380000004024000B589B0002303930493059321
:10339000069307930268144B9A4202D009B05DF875
:1033A00004FB03F5FA335A6A42F400325A625A6A4D
:1033B00002F400320192019ADA6942F00102DA6104
:1033C000DB6903F001030293029B0C2303930223A6
:1033D000049301230593032306930723079303A96B
:1033E0000248FCF747FFD9E70044004000000240D4
:1033F00000B589B0002201461C20FCF7FBFE1C2012
:10340000FCF72CFF154B5A6A42F001025A625B6AC4
:1034100003F001030193019B02A903A8FDF7C8FD76
:10342000FDF79AFD0E4BA3FB00239B0C013B0D48BF
:103430004FF08042026040F2E732C26043600023F6
:1034400003618360FEF70AF818B1012009B05DF846
:1034500004FB0448FEF71BF8F8E700BF0038024001
:1034600083DE1B43E89100207047FEE7FEE7FEE79E
:10347000FEE7704708B50248FEF7A0F808BD00BF98
:10348000E89100200E4B1A6842F480721A60996825
:103490000C4A0A409A601A6822F0885222F00112FF
:1034A0001A601A6822F480221A609A6822F47D0257
:1034B0009A600022DA60044B4FF000629A60704715
:1034C000003802400CC0FF8800ED00E0002103E05E
:1034D0000B4B5B58435004310A480B4B42189A423D
:1034E000F6D30A4A02E0002342F8043B084B9A4212
:1034F000F9D3FFF7C7FF00F00FF8FFF70FFC704795
:10350000986600080000002060030020600300208F
:1035100024920020FEE7000070B500250C4E0D4CF3
:10352000A41BA410A54209D100F04AFC00250A4EB4
:103530000A4CA41BA410A54205D170BD56F8253035
:1035400098470135EEE756F8253098470135F2E700
:10355000906600089066000890660008946600086F
:10356000024B0146186800F063B800BFFC0200205F
:1035700010B5431E0A44914200D110BD11F8014B11
:1035800003F8014FF7E703460244934200D1704726
:1035900003F8011BF9E7000038B50546002943D0C0
:1035A00051F8043C0C1F002BB8BFE41800F0CAF817
:1035B0001E4A1368104633B9636014602846BDE89C
:1035C000384000F0C0B8A3420BD92168621893427A
:1035D00001BF1A685B685218226063600460EDE7FF
:1035E00013465A680AB1A242FAD919685818A0427B
:1035F0000BD120680144581882421960DED110684E
:103600005268014419605A60D8E702D90C232B6034
:10361000D4E7206821188A4201BF1168526809184E
:10362000216062605C60C9E738BD00BFE89000209F
:1036300070B5CD1C25F0030508350C2D38BF0C25C1
:10364000002D064601DBA94203D90C23336000207C
:1036500070BD00F077F8214A1468214691B9204CDA
:1036600023681BB9304600F03DF8206029463046FB
:1036700000F038F8431C24D10C233046336000F0AE
:1036800062F8E4E70B685B1B18D40B2B0FD90B60B7
:10369000CC18CD50304600F056F804F10B00231D35
:1036A00020F00700C31AD3D05A42E250D0E74B684B
:1036B0008C4216BF636013600C46EBE70C4649680A
:1036C000CCE7C41C24F00304A04205D0211A3046E4
:1036D00000F008F80130CFD02560DBE7E89000204B
:1036E000EC90002038B50023054C054608462360C1
:1036F00000F058FB431C02D1236803B12B6038BD96
:10370000209200200EB46FF0004100B59CB01DABBC
:1037100002900690079104910848094953F8042B38
:103720000591006802A9019300F068F80022029B4D
:103730001A701CB05DF804EB03B07047FC02002067
:103740000802FFFF704770472DE9F0478E688246F8
:103750009E420C469046994637D88A8912F4906F5B
:1037600031D00223256809696F1A656905EB4505A3
:1037700095FBF3F509F101033B449D4238BF1D461B
:10378000530530D52946FFF753FF064650B90C23A1
:103790004FF0FF30CAF80030A38943F04003A38103
:1037A000BDE8F0873A462169FFF7E2FEA38923F4DA
:1037B000906343F08003A38126613E4426604E4619
:1037C0006561ED1BA5604E4500D94E463246414627
:1037D000206800F09FFAA36800209B1BA360236869
:1037E0001E442660DCE72A4600F0ADFA06460028B3
:1037F000E2D121695046FFF7CFFEC8E72DE9F04F2F
:103800009DB003938B8980461D060C4616460FD546
:103810000B696BB94021FFF70BFF2060206128B9CD
:103820000C23C8F800304FF0FF30C7E0402363613D
:103830000023099320238DF8293030234FF0010B0A
:103840008DF82A3037463D4615F8013B0BB1252B44
:103850003ED1B7EB060A0BD05346324621464046CE
:10386000FFF772FF013000F0A480099B53440993D5
:103870003B78002B00F09D8000234FF0FF32CDE914
:103880000523049307938DF853301A932F4605228E
:1038900017F8011B4F4800F02FFA049BD0B9D90646
:1038A00044BF20228DF853201A0744BF2B228DF8E5
:1038B00053202A782A2A15D02F4600200A25079A55
:1038C000394611F8013B303B092B4DD9B8B10FE017
:1038D0002F46B8E73F4A3D46801A0BFA00F01843DE
:1038E0000490D3E7039A111D12680391002A01DBAB
:1038F000079204E0524243F00203079204933B789C
:103900002E2B0CD17B782A2B33D1039B02371A1D27
:103910001B680392002BB8BF4FF0FF3305932E4D69
:1039200003223978284600F0E7F938B14023401BDC
:1039300003FA00F0049B013703430493397806220D
:1039400026487E1C8DF8281000F0D6F9002838D0C3
:10395000234B13BB039B073323F007030833039365
:10396000099B4B4409936DE705FB023201200F468A
:10397000A6E700230A25194601370593384610F8B3
:10398000012B303A092A03D9002BC8D00591C6E78C
:1039900005FB012101230746F0E703AB0093224614
:1039A000104B04A94046AFF30080B0F1FF3F8146C1
:1039B000D6D1A3895B063FF536AF09981DB0BDE8A7
:1039C000F08F03AB00932246064B04A9404600F05B
:1039D00081F8EAE75C66000862660008666600082F
:1039E00000000000493700082DE9F04791461F46C6
:1039F0008A680B6906469342B8BF1346C9F800307F
:103A000091F843200C46DDF8208012B10133C9F84B
:103A100000302368990642BFD9F800300233C9F854
:103A20000030256815F0060507D104F1190AE3688E
:103A3000D9F800209B1AAB4229DC94F84330226865
:103A4000003318BF012392062ED404F143023946F5
:103A50003046C047013021D02368E56803F00603F3
:103A6000042B18BF0025D9F800204FF0000908BF2B
:103A7000AD1AA368226908BF25EAE5759342C4BF61
:103A80009B1AED181A344D451AD1002008E0012385
:103A9000524639463046C047013003D14FF0FF301F
:103AA000BDE8F0870135C2E73020E11881F8430016
:103AB0005A1C94F845102244023382F84310C4E79C
:103AC0000123224639463046C0470130E6D009F18D
:103AD0000109D8E72DE9F04301F1430C0C46097EBA
:103AE00085B06E291746064698460C9A00F0B380BA
:103AF00022D8632936D00AD8002900F0B980582985
:103B000000F0838004F1420584F8421032E0642919
:103B100001D06929F6D120681368050603F1040174
:103B20002AD51B681160002B03DA2D225B4284F832
:103B300043206F480A2239E0732900F09D8008D89D
:103B40006F2920D07029DDD1236843F02003236042
:103B500003E0752917D07829D4D17823654884F8F3
:103B6000453055E0136804F14205191D1B681160CA
:103B700084F8423001238CE01B6810F0400F116084
:103B800018BF1BB2CFE713682568181D1060280600
:103B900001D51B6802E06806FBD51B886F2914BF9E
:103BA0000A2208225248002184F843106568002D3B
:103BB000A560C0F29580216821F004012160002BEE
:103BC0003DD1002D40F08E806546082A0BD1236838
:103BD000DB0708D5236962689A42DEBF302305F807
:103BE000013C05F1FF35ACEB05032361CDF8008006
:103BF0003B4603AA21463046FFF7F6FE01304DD181
:103C00004FF0FF3005B0BDE8F083394884F8451027
:103C1000136821681D1D1B6815600A060BD5CA07AD
:103C200044BF41F0200121601BB9226822F020022C
:103C300022601022B7E74D0648BF9BB2EFE765460A
:103C4000B3FBF2F102FB1133C35C05F8013D0B46F7
:103C50000029F5D1B9E713682568181D616910605E
:103C600028061B6801D5196002E06A06FBD5198099
:103C7000002365462361B9E71368191D11601D68AB
:103C800062680021284600F037F808B1401B6060E8
:103C900063682361002384F84330A7E723692A4639
:103CA00039463046C0470130AAD023689B0713D459
:103CB000E068039B9842B8BF1846A3E701234A4631
:103CC00039463046C04701309AD00135E368039A3F
:103CD0009B1AAB42F2DCEBE7002504F11909F5E78A
:103CE000002BACD1037804F1420584F842306CE734
:103CF0006D6600087E66000810B5C9B202449042A5
:103D0000034601D1002303E01C7801308C42F6D138
:103D1000184610BD884210B501EB020307D8421EB9
:103D200099420AD011F8014B02F8014FF8E783429B
:103D3000F5D98118D21AD34200D110BD13F8014D24
:103D400001F8014DF7E7F8B5074614460E4621B9CC
:103D5000BDE8F8401146FFF76BBC22B9FFF71CFC29
:103D600025462846F8BD00F014F8A0420FD221469F
:103D70003846FFF75DFC05460028F2D03146224662
:103D8000FFF7F6FB31463846FFF706FCE9E7354614
:103D9000E7E751F8043C181F002BBCBF0B58C018B4
:103DA00070470000044A05491368002B08BF0B4602
:103DB0001844106018467047F090002028920020A8
:103DC000F8B500BFF8BC08BC9E467047F8B500BF08
:083DD000F8BC08BC9E467047D8
:103DD80000000000000000000000000000000000DB
:103DE80000000000000000000000000000000000CB
:103DF80000000000000000000000000000000000BB
:103E080000000000E003E003E003E003E003E00358
:103E1800E003E003C003C003C001C001C001C0014A
:103E2800C001000000000000E003E003E003000020
:103E380000000000000000003C1E3C1E3C1E3C1E12
:103E48003C1E3C1E3C1E000000000000000000005C
:103E5800000000000000000000000000000000005A
:103E6800000000000000000000000000CE01CE03AA
:103E7800DE039E039C039C07FF3FFF7F3807380F34
:103E8800780F780F780EFFFFFFFFF01EF01CE01C84
:103E9800E03CE03DE03900000000000000000000C8
:103EA800FC03FE0FEE1FE01EE01EE01EE01EE01FFA
:103EB800E00FE007F003FC01FE01FE01FE01FE0138
:103EC800FE01FE01FE3DFC3FF00FE001E0010000B5
:103ED80000000000033E07F78FE78EE79EE3BCE390
:103EE800B8E7F8E7F0F7E03FC001FF03FF07F30783
:103EF800F30FF31EF33CF338F3787FF03FE0000054
:103F08000000000000000000E007F80F780F781F9D
:103F1800781F781F780FF00FE00F801FC37FC3FB57
:103F2800E7F3F7F1F7F0FFF07FF03EF87F7CFF3F13
:103F3800EF1F00000000000000000000E003E003A5
:103F4800E003E003E003C003C0010000000000003C
:103F58000000000000000000000000000000000059
:103F68000000000000000000000000000000000049
:103F78003F007C00F001E001C003C0078007800714
:103F8800800F000F000F000F000F000F000F800FB1
:103F980080078007C007C003E001F0017C003F00F4
:103FA8000F000000007E001FC007C003E001F00101
:103FB800F000F000F80078007800780078007800C9
:103FC8007800F800F000F000F001E001C003C0073D
:103FD800001F007E00780000E003C003C001CE3956
:103FE800FF3F7F3F20037003F807780F3C1F380618
:103FF80000000000000000000000000000000000B9
:1040080000000000000000000000000000000000A8
:104018000000000000000000C001C001C001C00194
:10402800C001C001C001FFFFFFFFC001C001C00106
:10403800C001C001C0010000000000000000000035
:104048000000000000000000000000000000000068
:104058000000000000000000000000000000000058
:104068000000E003E003E003E003E001E001E00119
:10407800C0018003000000000000000000000000F4
:1040880000000000000000000000FE3FFE3F0000AE
:104098000000000000000000000000000000000018
:1040A8000000000000000000000000000000000008
:1040B80000000000000000000000000000000000F8
:1040C80000000000000000000000E003E003E0033F
:1040D800E003000000000000000000000F000F00D7
:1040E8001E001E003C003C0078007800F000F00044
:1040F800E001E001C003C00380078007000F000F44
:10410800001E001E003C003C0078007800F0000013
:10411800F007F80F7C1F3E3E1E3C1F7C1F7C0F786B
:104128000F780F780F780F780F780F781F7C1F7C27
:104138001E3C3E3E7C1FF80FF00700000000000008
:1041480000000000F000F007F03FF03FF001F00140
:10415800F001F001F001F001F001F001F001F001CF
:10416800F001F001F001F001F001FF3FFF3F000016
:104178000000000000000000E00FF83F7C3C3C001D
:104188003E003E003E003C003C007C00F800F00190
:10419800E003C0078007000F001E003E003CFE3F02
:1041A800FE3F00000000000000000000F00FF81FB4
:1041B8007C1C3E003E003E003C003C00F800F00F36
:1041C800F80F7C003E001E001E001E001E003E0070
:1041D8007C1CF81FE01F0000000000000000000029
:1041E8007800F800F800F801F803F807F807780FE6
:1041F800781E781E783C78787878FFFFFFFF780083
:10420800780078007800780078000000000000004E
:1042180000000000FC1FFC1FFC1F001E001E001EEB
:10422800001E001EE01FF81FFC007C003E003E0040
:104238001E003E003E003C007C1CF81FE01F0000F2
:104248000000000000000000FC01FE078E0F001FA8
:10425800001E003E003C003CF83DFC3F3E7F1F7EB8
:104268000F3C0F3C0F3C0F3C0F3E1F1E3E1FFC0F28
:10427800F00300000000000000000000FF3FFF3FC7
:10428800FF3F0F001E001E003C0038007800F000C1
:10429800F000E001E001C003C0038007800F800F39
:1042A800000F001F001F00000000000000000000B9
:1042B800F807FC0F3E1F1E1E1E3E1E3E1E1E3C1F04
:1042C800F80FF007F80FFC1E3E3E1F3C1F7C0F7CCA
:1042D8000F7C1F3C3E3FFC1FF00700000000000061
:1042E80000000000F007F80F7C1E3E3C1E3C1F7CBF
:1042F8001F7C1F7C1F7C1F3C3F3EFF1FEF071F00DA
:104308001E001E003E003C00F838F03FE01F000091
:104318000000000000000000000000000000000095
:1043280000000000E003E003E003E00300000000F9
:1043380000000000000000000000E003E003E003CC
:10434800E003000000000000000000000000000082
:104358000000000000000000E003E003E003E003C9
:104368000000000000000000000000000000E00362
:10437800E003E003E003E001E001E001C0038003A3
:1043880000000000000000000000000003000F0013
:104398003F00FC00F003C00F003F00FE003FC00FCD
:1043A800F003FC003F000F000300000000000000C5
:1043B80000000000000000000000000000000000F5
:1043C8000000000000000000FFFFFFFF00000000E9
:1043D8000000FFFFFFFF00000000000000000000D9
:1043E80000000000000000000000000000000000C5
:1043F8000000000000E000F8007E801FE007F801E0
:104408007E001F007E00F801E007801F007E00F894
:1044180000E000000000000000000000F01FFC3F6A
:104428003E381F381F381E001E003C007800F00080
:10443800E001C003C003C007C0070000000000007F
:10444800C007C007C007000000000000000000000F
:10445800F803FE0F1E1F0F3E7F3CFF78EF79C773EE
:10446800C7F38FF38FF38FF39FF39FF3FF73FF7BF4
:10447800F779003C1C1FFC0FF80300000000000047
:1044880000000000000000000000E003E003F00767
:10449800F007F007780F780F7C0E3C1E3C1E3E3C60
:1044A800FE3FFF3F1F780F780FF007F007F000007E
:1044B8000000000000000000000000000000F83FBD
:1044C800FC3F3E3C1E3C1E3C1E3C3E3C7C3CF03FC0
:1044D800F83F7E3C1F3C1F3C0F3C0F3C1F3CFE3FFF
:1044E800F83F00000000000000000000000000008D
:1044F8000000FF01FF07871F003E003C007C00789A
:104508000078007800780078007C007C003E003F4E
:10451800831FFF07FF0100000000000000000000EB
:10452800000000000000F07FFC7F7E781F781F7875
:104538000F780F780F780F780F780F780F780F783B
:104548001F781E787E78F87FE07F0000000000006A
:1045580000000000000000000000FF3FFF3F003E99
:10456800003E003E003E003E003EFE3FFE3F003E55
:10457800003E003E003E003E003EFF3FFF3F000081
:104588000000000000000000000000000000FF1F05
:10459800FF1F001E001E001E001E001E001EFF1F23
:1045A800FF1F001E001E001E001E001E001E001E13
:1045B800001E0000000000000000000000000000D5
:1045C8000000FE03FF0F871F003E007C007C007880
:1045D80000F800F87FF87FF80F780F7C0F7C0F3E0B
:1045E8008F1FFF0FFE030000000000000000000006
:1045F8000000000000001F7C1F7C1F7C1F7C1F7CAC
:104608001F7C1F7C1F7CFF7FFF7F1F7C1F7C1F7C04
:104618001F7C1F7C1F7C1F7C1F7C0000000000008B
:1046280000000000000000000000FF3FFF3FE00323
:10463800E003E003E003E003E003E003E003E0035A
:10464800E003E003E003E003E003FF3FFF3F000077
:104658000000000000000000000000000000FC1F37
:10466800FC1F7C007C007C007C007C007C007C00C3
:104678007C007C007C007C0078007800F838F03FF3
:10468800C03F000000000000000000000000000023
:1046980000001F3C1E3C3C3C783CF03CE03DE03FC9
:1046A800C03F803FC03FE03FF03DF03C783C7C3C61
:1046B8003E3C1F3C0F3C00000000000000000000D2
:1046C800000000000000003E003E003E003E003EAC
:1046D800003E003E003E003E003E003E003E003EE2
:1046E800003E003E003EFF3FFF3F0000000000008C
:1046F800000000000000000000001FF81FFC1FFC65
:104708003FFE3FFE3FFE7FFF77FF77FFF7F7E7F7B4
:10471800E7F3E7F3C7F307F007F007F007F0000047
:1047280000000000000000000000000000000F7CF6
:104738000F7C0F7E0F7F0F7F8F7F8F7FCF7FEF7B69
:10474800EF79FF79FF78FF787F783F783F781F7897
:104758001F780000000000000000000000000000BA
:104768000000F007FC1F3E3E1F7C0F780F780FF803
:104778000FF80FF80FF80FF80FF80F780F781F7C65
:104788003E3EFC1FF0070000000000000000000093
:10479800000000000000FC3FFF3F1F3E0F3E0F3EA1
:1047A8000F3E0F3E1F3E3F3EFC3FF03F003E003EA7
:1047B800003E003E003E003E003E000000000000BB
:1047C80000000000000000000000F007FC1F3E3E53
:1047D8001F7C0F780F780FF80FF80FF80FF80FF805
:1047E8000FF80F780F781F7C3E3EFC1FF8077C00FF
:1047F8003F000F0003000000000000000000F03F31
:10480800FC3F7E3C3E3C1E3C1E3C3E3C3C3CFC3C53
:10481800F03FE03FF03DF83C7C3C3E3C1E3C1F3CFA
:104828000F3C000000000000000000000000000035
:104838000000FC07FE1F0E3E003C003C003C003E12
:10484800C01FF80FFE037F001F000F000F001F207E
:104858003E3CFC3FF01F000000000000000000008C
:10486800000000000000FFFFFFFFE003E003E0039B
:10487800E003E003E003E003E003E003E003E00318
:10488800E003E003E003E003E003000000000000B1
:10489800000000000000000000000F7C0F7C0F7C6F
:1048A8000F7C0F7C0F7C0F7C0F7C0F7C0F7C0F7CA8
:1048B8000F7C0F7C1E3C1E3C3E3EFC1FF007000098
:1048C800000000000000000000000000000007F0E9
:1048D80007F007F80F780F7C1E3C1E3C1E3E3C1E5E
:1048E8003C1F781F780FF80FF007F007F007E00378
:1048F800E0030000000000000000000000000000CD
:10490800000003E003F003F007F0E7F3E7F3E7F351
:10491800E773F77BF77FFF7F7F7F7F7F7E7F7E3F19
:104928003E3E3E3E3E3E000000000000000000000B
:1049380000000000000007F80F7C1E3E3E3E3C1FB2
:10494800F80FF007E007E003E003F007F80F7C0F2B
:104958007C1E3E3C1F780F780FF00000000000001E
:104968000000000000000000000007F807780F7C36
:104978001E3C1E3E3C1F780FF80FF007E003E003D3
:10498800E003E003E003E003E003E003E0030000EA
:104998000000000000000000000000000000FF7F91
:1049A800FF7F0F001F003E007C00F800F000E001D0
:1049B800E003C007800F000F001E003E007CFF7F51
:1049C800FF7F00000000000000000000FF078007D4
:1049D8008007800780078007800780078007800797
:1049E8008007800780078007800780078007800787
:1049F80080078007800780078007FF07FF07000000
:104A080000780078003C003C001E001E000F000FDC
:104A180080078007C003C003E001E001F000F00058
:104A2800780078003C003C001E001E000F000F00BC
:104A380007000000F07FF000F000F000F000F00048
:104A4800F000F000F000F000F000F000F000F000DE
:104A5800F000F000F000F000F000F000F000F000CE
:104A6800F000F07FF07F0000C000C001C001E0034B
:104A7800E003F007F0077807780F380F3C1E3C1E5C
:104A88001E3C1E3C0F380F7807780000000000001D
:104A9800000000000000000000000000000000000E
:104AA80000000000000000000000000000000000FE
:104AB80000000000000000000000000000000000EE
:104AC800000000000000FFFFFFFF000000000000E2
:104AD800F0000000000000000000000000000000DE
:104AE80000000000000000000000000000000000BE
:104AF80000000000000000000000000000000000AE
:104B0800000000000000000000000000000000009D
:104B1800F80FFC3F7C3C3E003E003E00FE07FE1FB7
:104B28003E3E3E7C3E783E7C7E7CFF3FCF1F0000B1
:104B38000000000000000000003C003C003C003C7D
:104B4800003C003CF83DFE3F3E3F1F3E0F3C0F3C03
:104B58000F3C0F3C0F3C0F3C1F3C1E3C3E3FFC3FB4
:104B6800F03B000000000000000000000000000012
:104B78000000000000000000FE03FF0F871F003E3A
:104B8800003E003C007C007C007C003C003E003E77
:104B9800871FFF0FFE030000000000000000000058
:104BA8001F001F001F001F001F001F00FF07FF1F1F
:104BB8003F3E1F3C1F7C1F7C1F7C1F781F781F7C7B
:104BC8001F7C3F3C7F3EFF1FDF0F000000000000FE
:104BD80000000000000000000000000000000000CD
:104BE800F803FC0F3E1F1E3E1F3C1F7CFF7FFF7F0C
:104BF800007C007C003C003E071FFF0FFE03000006
:104C08000000000000000000FF01E103C003C0072E
:104C1800C007C007FF7FFF7FC007C007C007C007E6
:104C2800C007C007C007C007C007C007C007C00744
:104C3800C0070000000000000000000000000000A5
:104C48000000000000000000EF07FF1F7F3E1F3C30
:104C58001F7C1F7C1F781F781F781F7C1F7C3F3CA0
:104C68007F3EFF1FDF0F1E001E001E007C38F83F2E
:104C7800003C003C003C003C003C003CFC3DFE3F4E
:104C88009E3F1F3F1F3E1F3C1F3C1F3C1F3C1F3CBD
:104C98001F3C1F3C1F3C1F3C1F3C00000000000045
:104CA80000000000F001F00100000000000000001A
:104CB800E07FE07FE001E001E001E001E001E001E8
:104CC800E001E001E001E001E001E001E0010000B5
:104CD8000000000000000000F800F80000000000DC
:104CE80000000000F83FF83FF800F800F800F8006E
:104CF800F800F800F800F800F800F800F800F800EC
:104D0800F800F800F800F000F071E07F003C003C8B
:104D1800003C003C003C003C1F3C3E3C7C3CF83CDA
:104D2800F03DE03DC03FC03FE03FF03DF83C7C3CFB
:104D38003E3C1F3C1F3C000000000000000000003B
:104D4800F07FF001F001F001F001F001F001F00155
:104D5800F001F001F001F001F001F001F001F001C3
:104D6800F001F001F001F001F00100000000000086
:104D7800000000000000000000000000000000002B
:104D88009EF7FFFFFFFFFFFFE7FBE7F9C7F1C7F15A
:104D9800C7F1C7F1C7F1C7F1C7F1C7F1C7F1000003
:104DA80000000000000000000000000000000000FB
:104DB80000000000FC3DFE3F9E3F1F3F1F3E1F3C82
:104DC8001F3C1F3C1F3C1F3C1F3C1F3C1F3C1F3C03
:104DD8001F3C000000000000000000000000000070
:104DE8000000000000000000F007FC1F3E3E1F3CD2
:104DF8001F7C0F780F780F780F780F781F7C1F3C77
:104E08003E3EFC1FF007000000000000000000000C
:104E1800000000000000000000000000F83DFE3F18
:104E28003E3F1F3E0F3C0F3C0F3C0F3C0F3C0F3CDE
:104E38001F3C1E3E3E3FFC3FF83F003C003C003C10
:104E4800003C003C000000000000000000000000E2
:104E5800EE07FE1F7E3E1E3C1E7C1E781E781E78C6
:104E68001E781E781E7C3E7C7E3EFE1FDE0F1E00D6
:104E78001E001E001E001E000000000000000000B2
:104E8800000000007F1FFF1FE71FC71F871F001FAD
:104E9800001F001F001F001F001F001F001F001F12
:104EA800001F0000000000000000000000000000DB
:104EB8000000000000000000FC07FE1F0E1E003E60
:104EC800003E003FE01FFC07FE003E001E001E00E3
:104ED8003E3CFC3FF01F0000000000000000000006
:104EE800000000000000800780078007FF7FFF7F29
:104EF8008007800780078007800780078007800772
:104F080080078007C007FF03FF01000000000000C2
:104F18000000000000000000000000000000000089
:104F28001E3C1E3C1E3C1E3C1E3C1E3C1E3C1E3CA9
:104F38001E3C1E3C3E3C7E3CFE3EFE1FDE0F00003B
:104F48000000000000000000000000000000000059
:104F58000000000007F00F780F781E3C1E3C1E3E34
:104F68003C1E3C1E780F780FF00FF007F007E003A7
:104F7800E003000000000000000000000000000046
:104F8800000000000000000003F0E3F1E3F3E7F3A2
:104F9800F7F3F7F3F77F777F7F7F7F7F7F7F3E3E53
:104FA8003E3E3E3E3E3E0000000000000000000085
:104FB8000000000000000000000000000F7C1E3E02
:104FC8003C3E3C1FF80FF007F007E003F007F80736
:104FD800F80F7C1E3E3E1F3C1F78000000000000BA
:104FE80000000000000000000000000000000000B9
:104FF80007F80F780F7C1E3C1E3C3C1E3C1E3C1FD5
:10500800780FF80FF007F007E003E003C003C003D0
:10501800C0038007800F007F000000000000000030
:1050280000000000FF3FFF3F1F003E007C00F8002B
:10503800F001E003C007800F001F001E003CFF7F47
:10504800FF7F00000000000000000000FE01E003F8
:10505800C003C003C003C003E001E001E001C001D8
:10506800C003803F803FC003C001E001E001E001D0
:10507800C003C003C003C003E003FE017E000000BC
:10508800C001C001C001C001C001C001C001C00110
:10509800C001C001C001C001C001C001C001C00100
:1050A800C001C001C001C001C001C001C001C001F0
:1050B800C0010000C03FE003E001E001E001E001C1
:1050C800C001C003C003C001E001FE00FE00E00112
:1050D800C001C003C003C001E001E001E001E0013C
:1050E800E003C03F003F0000000000000000000097
:1050F8000000000000000000000000000000073F62
:10510800C77FE773FFF17EF0000000000000000099
:105118000000000000000000000000000000000087
:105128000000000000000000000000000000000077
:105138000000000000000000000000000000000067
:105148000000000C000C000C000C000C000C000C03
:10515800000C000C000C000C0000000C000C0000FF
:10516800000000000000001B001B001B001B001BB0
:105178000000000000000000000000000000000027
:10518800000000000000000000008019801980194C
:105198008019C07FC07F80190033C07FC07F003373
:1051A8000033003300330000000000000000001E40
:1051B800003F807580650074003C001E0007800574
:1051C800806580658075003F001E000400040000B3
:1051D8000000007000D840D8C0D880D900730006FD
:1051E800000C801BC036C066C046C00680030000A5
:1051F800000000000000001E003F003300330033B1
:10520800001E000CC03CC066806380618063C03EA5
:10521800801C0000000000000000000C000C000CC6
:10522800000C000C0000000000000000000000005E
:1052380000000000000000000000000080000001E5
:105248000003000600060004000C000C000C000C13
:10525800000C000C0004000600060003000180009A
:10526800002000100018000C000C000400060006C6
:1052780000060006000600060004000C000C0018DA
:10528800001000200000000C002D003F001E00331D
:105298000000000000000000000000000000000006
:1052A8000000000000000000000000000000000CEA
:1052B800000C000C000CC0FFC0FF000C000C000C20
:1052C800000C0000000000000000000000000000CA
:1052D80000000000000000000000000000000000C6
:1052E800000000000000000C000C0004000400088E
:1052F80000000000000000000000000000000000A6
:105308000000001E001E0000000000000000000059
:105318000000000000000000000000000000000085
:105328000000000000000000000000000000000C69
:10533800000C000000000000000000030003000350
:105348000006000600060006000C000C000C000C0D
:105358000018001800180000000000000000001EDF
:10536800003F0033806180618061806D806D806165
:10537800806180610033003F001E000000000000D3
:1053880000000006000E001E00360026000600067B
:1053980000060006000600060006000600060000DB
:1053A800000000000000001E003F807380618061E3
:1053B800800100030006000C001800300060807FA8
:1053C800807F0000000000000000001C003E006319
:1053D80000630003000E000E00038001800180615D
:1053E8008073003F001E000000000000000000065F
:1053F800000E000E001E001E001600360036006665
:10540800807F807F00060006000600000000000084
:105418000000007F007F006000600060006E007F79
:1054280080638001800180618073003F001E00005E
:10543800000000000000001E003F80338061006013
:10544800006E007F80738061806180618033003FDF
:10545800001E0000000000000000807F807F8001A7
:105468000003000300060006000C000C000C0008F6
:105478000018001800180000000000000000001EBE
:10548800003F8063806180610021001E003F8061D1
:10549800806180618061003F001E00000000000004
:1054A8000000001E003F007380618061806180738E
:1054B800803F801D800180610073003F001E000056
:1054C8000000000000000000000000000000000CC8
:1054D800000C000000000000000000000000000CAC
:1054E800000C0000000000000000000000000000A8
:1054F80000000000000C000C00000000000000008C
:105508000000000C000C000400040008000000006B
:105518000000000080008003000E003800600038A2
:10552800000E800380000000000000000000000062
:1055380000000000000000000000807F807F000065
:105548000000807F807F0000000000000000000055
:105558000000000000000000000000000040007093
:10556800001C000780010007001C007000400000BC
:1055780000000000000000000000001F803FC07114
:10558800C060C000C00180030007000E000C000CC2
:105598000000000C000C0000000000000000001ECD
:1055A800003F803180718063806F806D806D806F77
:1055B800806700600032003E001C00000000000010
:1055C8000000000E000E001B001B001B001B80319A
:1055D8008031803F803F8031C060C060C060000083
:1055E800000000000000007C007E00630063006390
:1055F8000063007E007E0063806180618063007FBD
:10560800007E0000000000000000001E003F803106
:105618008061006000600060006000600060806180
:105628008031003F001E0000000000000000007CE8
:10563800007F006380638061806180618061806138
:10564800806100630063007E007C000000000000B1
:105658000000807F807F0060006000600060007F45
:10566800007F0060006000600060807F807F000035
:10567800000000000000807F807F00600060006004
:105688000060007F007F00600060006000600060D4
:1056980000600000000000000000001E003F803194
:1056A8008061006000600060806380638061806169
:1056B8008031803F001E0000000000000000806173
:1056C80080618061806180618061807F807F80618E
:1056D800806180618061806180610000000000005D
:1056E8000000003F003F000C000C000C000C000CF8
:1056F800000C000C000C000C000C003F003F0000E8
:10570800000000000000800180018001800180010C
:105718008001800180018001806180618073003F89
:10572800001E0000000000000000C06080610063EF
:1057380000660066006C0078007C00660066006306
:1057480080618061C060000000000000000000600F
:105758000060006000600060006000600060006041
:10576800006000600060807F807F00000000000013
:105778000000C071C071C07BC07AC06AC06AC06EC8
:10578800C064C060C060C060C060C060C06000002D
:105798000000000000008071807180798079807934
:1057A800806D806D806D80658067806780678063AD
:1057B80080630000000000000000001E003F00336E
:1057C80080618061806180618061806180618061C9
:1057D8000033003F001E0000000000000000007EB3
:1057E800007F80638061806180618063007F007ECC
:1057F80000600060006000600060000000000000C1
:105808000000001E003F003380618061806180617C
:1058180080618061806580670033803F401E0000A2
:10582800000000000000007E007F806380618061CE
:105838008063007F007E0066006300638061806192
:10584800C0600000000000000000000E001F803152
:10585800803100300038001E0007800380618061BD
:105868008031003F001E0000000000000000C0FF63
:10587800C0FF000C000C000C000C000C000C000C0D
:10588800000C000C000C000C000C000000000000D4
:1058980000008061806180618061806180618061D9
:1058A80080618061806180618073003F001E00001C
:1058B800000000000000C060C060C060803180311E
:1058C8008031001B001B001B001B000E000E000E89
:1058D80000040000000000000000C0C0C0C0C0C03C
:1058E800C0C0C0C0C0CC804C804C805E805280520A
:1058F8008073806180610000000000000000C0C06B
:10590800806080610033003B001E000C000C001E0C
:10591800001F003B80718061C0C0000000000000D3
:105928000000C0C08061806100330033001E001E8B
:10593800000C000C000C000C000C000C000C00000B
:10594800000000000000803F803F8001000300034A
:105958000006000C000C0018001800300060807F62
:10596800807F000000000000000F000F000C000CFA
:10597800000C000C000C000C000C000C000C000CBF
:10598800000C000C000C000C000F000F00000018A9
:1059980000180018000C000C000C000C0006000693
:1059A80000060006000300030003000000000000DA
:1059B800001E001E0006000600060006000600067F
:1059C800000600060006000600060006000600069F
:1059D800001E001E0000000C000C001E0012003308
:1059E80000338061806100000000000000000000BA
:1059F800000000000000000000000000000000009F
:105A0800000000000000000000000000000000008E
:105A18000000000000000000E0FF00000000003867
:105A28000018000C0000000000000000000000004A
:105A3800000000000000000000000000000000005E
:105A480000000000000000000000001F803F80618F
:105A58008001801F803F80618063807FC0380000A4
:105A68000000000000000060006000600060006E40
:105A7800007F807380618061806180618073007FB6
:105A8800006E0000000000000000000000000000A0
:105A98000000001E003F807380610060006080612C
:105AA8008073003F001E000000000000000080011D
:105AB800800180018001801D803F8073806180614A
:105AC800806180618073803F801D000000000000BD
